{
  "address": "0x7757e69818Dc64b14e0aaffaae19B5e466735188",
  "abi": [
    {
      "anonymous": false,
      "inputs": [
        {
          "indexed": true,
          "internalType": "address",
          "name": "from",
          "type": "address"
        },
        {
          "indexed": false,
          "internalType": "string",
          "name": "nickname",
          "type": "string"
        },
        {
          "indexed": true,
          "internalType": "address",
          "name": "to",
          "type": "address"
        },
        {
          "indexed": false,
          "internalType": "uint256",
          "name": "amount",
          "type": "uint256"
        },
        {
          "indexed": false,
          "internalType": "uint256",
          "name": "timestamp",
          "type": "uint256"
        },
        {
          "indexed": false,
          "internalType": "string",
          "name": "message",
          "type": "string"
        }
      ],
      "name": "NewDonation",
      "type": "event"
    },
    {
      "inputs": [
        {
          "internalType": "string",
          "name": "_nickname",
          "type": "string"
        },
        {
          "internalType": "address",
          "name": "_to",
          "type": "address"
        },
        {
          "internalType": "string",
          "name": "_message",
          "type": "string"
        }
      ],
      "name": "donate",
      "outputs": [],
      "stateMutability": "payable",
      "type": "function"
    }
  ],
  "transactionHash": "0xce74c9c1f7de9d6450d1c9dcf6f1a8c07e4b63e363a5ed86701e2a1fa3f71a7e",
  "args": [],
  "numDeployments": 6,
  "solcInputHash": "a54dcad9afed6082e3e09522d0798063",
  "bytecode": "0x608060405234801561001057600080fd5b50610277806100206000396000f3fe60806040526004361061001e5760003560e01c806316ae70d414610023575b600080fd5b61003661003136600461013a565b610038565b005b60405173ffffffffffffffffffffffffffffffffffffffff8416903480156108fc02916000818181858888f1935050505015801561007a573d6000803e3d6000fd5b508273ffffffffffffffffffffffffffffffffffffffff163373ffffffffffffffffffffffffffffffffffffffff167f995362ce364fef4ba9a9c889a12e2f6649633ca7b6d7750f70c4dde49e3db6cb8787344288886040516100e296959493929190610201565b60405180910390a35050505050565b60008083601f84011261010357600080fd5b50813567ffffffffffffffff81111561011b57600080fd5b60208301915083602082850101111561013357600080fd5b9250929050565b60008060008060006060868803121561015257600080fd5b853567ffffffffffffffff8082111561016a57600080fd5b61017689838a016100f1565b90975095506020880135915073ffffffffffffffffffffffffffffffffffffffff821682146101a457600080fd5b909350604087013590808211156101ba57600080fd5b506101c7888289016100f1565b969995985093965092949392505050565b81835281816020850137506000828201602090810191909152601f909101601f19169091010190565b60808152600061021560808301888a6101d8565b86602084015285604084015282810360608401526102348185876101d8565b999850505050505050505056fea26469706673582212200f8d61af07a227165a4a43f4cd480fe926c6b48215c3aca632b06a805cb3fc3a64736f6c63430008110033",
  "devdoc": {
    "kind": "dev",
    "methods": {},
    "version": 1
  },
  "userdoc": {
    "kind": "user",
    "methods": {},
    "version": 1
  },
  "storageLayout": {
    "storage": [],
    "types": null
  }
}