{
  "address": "0x39bE82fa0Af34dbbbCD6B25087B1b13aCb16B310",
  "abi": [
    {
      "anonymous": false,
      "inputs": [
        {
          "indexed": true,
          "internalType": "address",
          "name": "from",
          "type": "address"
        },
        {
          "indexed": true,
          "internalType": "address",
          "name": "to",
          "type": "address"
        },
        {
          "indexed": false,
          "internalType": "uint256",
          "name": "timestamp",
          "type": "uint256"
        },
        {
          "indexed": false,
          "internalType": "uint256",
          "name": "index",
          "type": "uint256"
        }
      ],
      "name": "ChallengeCompleted",
      "type": "event"
    },
    {
      "anonymous": false,
      "inputs": [
        {
          "indexed": true,
          "internalType": "address",
          "name": "from",
          "type": "address"
        },
        {
          "indexed": true,
          "internalType": "address",
          "name": "to",
          "type": "address"
        },
        {
          "indexed": false,
          "internalType": "uint256",
          "name": "timestamp",
          "type": "uint256"
        },
        {
          "indexed": false,
          "internalType": "uint256",
          "name": "index",
          "type": "uint256"
        }
      ],
      "name": "ChallengeFailed",
      "type": "event"
    },
    {
      "anonymous": false,
      "inputs": [
        {
          "indexed": true,
          "internalType": "address",
          "name": "from",
          "type": "address"
        },
        {
          "indexed": false,
          "internalType": "string",
          "name": "nickname",
          "type": "string"
        },
        {
          "indexed": true,
          "internalType": "address",
          "name": "to",
          "type": "address"
        },
        {
          "indexed": false,
          "internalType": "uint256",
          "name": "proposalPrice",
          "type": "uint256"
        },
        {
          "indexed": false,
          "internalType": "uint256",
          "name": "timestamp",
          "type": "uint256"
        },
        {
          "indexed": false,
          "internalType": "string",
          "name": "terms",
          "type": "string"
        },
        {
          "indexed": false,
          "internalType": "uint256",
          "name": "award",
          "type": "uint256"
        },
        {
          "indexed": false,
          "internalType": "uint256",
          "name": "index",
          "type": "uint256"
        }
      ],
      "name": "ChallengeProposed",
      "type": "event"
    },
    {
      "anonymous": false,
      "inputs": [
        {
          "indexed": true,
          "internalType": "address",
          "name": "from",
          "type": "address"
        },
        {
          "indexed": false,
          "internalType": "string",
          "name": "nickname",
          "type": "string"
        },
        {
          "indexed": true,
          "internalType": "address",
          "name": "to",
          "type": "address"
        },
        {
          "indexed": false,
          "internalType": "uint256",
          "name": "amount",
          "type": "uint256"
        },
        {
          "indexed": false,
          "internalType": "uint256",
          "name": "timestamp",
          "type": "uint256"
        },
        {
          "indexed": false,
          "internalType": "string",
          "name": "message",
          "type": "string"
        }
      ],
      "name": "NewDonation",
      "type": "event"
    },
    {
      "inputs": [
        {
          "internalType": "uint256",
          "name": "_index",
          "type": "uint256"
        }
      ],
      "name": "completeChallenge",
      "outputs": [],
      "stateMutability": "nonpayable",
      "type": "function"
    },
    {
      "inputs": [
        {
          "internalType": "string",
          "name": "_nickname",
          "type": "string"
        },
        {
          "internalType": "address",
          "name": "_to",
          "type": "address"
        },
        {
          "internalType": "string",
          "name": "_message",
          "type": "string"
        }
      ],
      "name": "donate",
      "outputs": [],
      "stateMutability": "payable",
      "type": "function"
    },
    {
      "inputs": [
        {
          "internalType": "uint256",
          "name": "_index",
          "type": "uint256"
        }
      ],
      "name": "failChallenge",
      "outputs": [],
      "stateMutability": "nonpayable",
      "type": "function"
    },
    {
      "inputs": [
        {
          "internalType": "address",
          "name": "_donater",
          "type": "address"
        }
      ],
      "name": "getProposedChallenges",
      "outputs": [
        {
          "components": [
            {
              "internalType": "address",
              "name": "to",
              "type": "address"
            },
            {
              "internalType": "uint256",
              "name": "timestamp",
              "type": "uint256"
            },
            {
              "internalType": "string",
              "name": "terms",
              "type": "string"
            },
            {
              "internalType": "uint256",
              "name": "award",
              "type": "uint256"
            },
            {
              "internalType": "enum DonationsStore.ChallengeStatus",
              "name": "status",
              "type": "uint8"
            }
          ],
          "internalType": "struct DonationsStore.Challenge[]",
          "name": "",
          "type": "tuple[]"
        }
      ],
      "stateMutability": "view",
      "type": "function"
    },
    {
      "inputs": [
        {
          "internalType": "string",
          "name": "_nickname",
          "type": "string"
        },
        {
          "internalType": "address",
          "name": "_to",
          "type": "address"
        },
        {
          "internalType": "string",
          "name": "_terms",
          "type": "string"
        },
        {
          "internalType": "uint256",
          "name": "_award",
          "type": "uint256"
        }
      ],
      "name": "proposeChallenge",
      "outputs": [],
      "stateMutability": "payable",
      "type": "function"
    },
    {
      "inputs": [
        {
          "internalType": "address",
          "name": "",
          "type": "address"
        },
        {
          "internalType": "uint256",
          "name": "",
          "type": "uint256"
        }
      ],
      "name": "proposedChallenges",
      "outputs": [
        {
          "internalType": "address",
          "name": "to",
          "type": "address"
        },
        {
          "internalType": "uint256",
          "name": "timestamp",
          "type": "uint256"
        },
        {
          "internalType": "string",
          "name": "terms",
          "type": "string"
        },
        {
          "internalType": "uint256",
          "name": "award",
          "type": "uint256"
        },
        {
          "internalType": "enum DonationsStore.ChallengeStatus",
          "name": "status",
          "type": "uint8"
        }
      ],
      "stateMutability": "view",
      "type": "function"
    }
  ],
  "transactionHash": "0x9b4933ce42e149f8c97f23eb5ea7a73f66acd7f8642398be0c0a2f00bee0d1ee",
  "args": [],
  "numDeployments": 9,
  "solcInputHash": "6ac9d47511afa760645ca738361d439b",
  "bytecode": "0x608060405234801561001057600080fd5b50610e12806100206000396000f3fe6080604052600436106100655760003560e01c8063a7817bbc11610043578063a7817bbc146100cc578063b0e3173d146100ec578063ea77b6641461011957600080fd5b806316ae70d41461006a5780636d9a67e81461007f5780637e616eb9146100b9575b600080fd5b61007d6100783660046108a8565b610139565b005b34801561008b57600080fd5b5061009f61009a36600461092c565b6101cb565b6040516100b09594939291906109d4565b60405180910390f35b61007d6100c7366004610a1b565b6102b1565b3480156100d857600080fd5b5061007d6100e7366004610aa7565b61048b565b3480156100f857600080fd5b5061010c610107366004610ac0565b6105c3565b6040516100b09190610ae2565b34801561012557600080fd5b5061007d610134366004610aa7565b610725565b6040516001600160a01b038416903480156108fc02916000818181858888f1935050505015801561016e573d6000803e3d6000fd5b50826001600160a01b0316336001600160a01b03167f995362ce364fef4ba9a9c889a12e2f6649633ca7b6d7750f70c4dde49e3db6cb8787344288886040516101bc96959493929190610bb5565b60405180910390a35050505050565b600060205281600052604060002081815481106101e757600080fd5b60009182526020909120600590910201805460018201546002830180546001600160a01b0390931695509093509061021e90610bf5565b80601f016020809104026020016040519081016040528092919081815260200182805461024a90610bf5565b80156102975780601f1061026c57610100808354040283529160200191610297565b820191906000526020600020905b81548152906001019060200180831161027a57829003601f168201915b50505050600383015460049093015491929160ff16905085565b60006102bd8234610c2f565b6040519091506001600160a01b0386169082156108fc029083906000818181858888f193505050501580156102f6573d6000803e3d6000fd5b503360009081526020818152604091829020825160a0810184526001600160a01b038916815242818401528351601f8801849004840281018401855287815291939092908301919088908890819084018382808284376000920182905250938552505050602082018690526040909101528154600180820184556000938452602093849020835160059093020180547fffffffffffffffffffffffff0000000000000000000000000000000000000000166001600160a01b039093169290921782559282015192810192909255604081015190919060028201906103da9082610cbb565b5060608201516003820155608082015160048201805460ff191660018360028111156104085761040861099c565b021790555050336000818152602081905260409020546001600160a01b03881692507f645f06cf638c825947c065f8742db4b943628b79a6109487a3310ab46a117af6908a908a90869042908b908b908b9061046690600190610c2f565b60405161047a989796959493929190610d7b565b60405180910390a350505050505050565b3360009081526020819052604081208054839081106104ac576104ac610dc6565b6000918252602082206005909102019150600482015460ff1660028111156104d6576104d661099c565b146105285760405162461bcd60e51b815260206004820152601a60248201527f4368616c6c656e676520616c72656164792066696e697368656400000000000060448201526064015b60405180910390fd5b60048101805460ff19166001179055805460038201546040516001600160a01b03909216916108fc82150291906000818181858888f19350505050158015610574573d6000803e3d6000fd5b50805460408051428152602081018590526001600160a01b039092169133917f793cd657799b9183ecbe97a9e0752529016bb80c446ae0c22ad427eee04c339891015b60405180910390a35050565b6001600160a01b038116600090815260208181526040808320805482518185028101850190935280835260609492939192909184015b8282101561071a5760008481526020908190206040805160a0810182526005860290920180546001600160a01b031683526001810154938301939093526002830180549293929184019161064c90610bf5565b80601f016020809104026020016040519081016040528092919081815260200182805461067890610bf5565b80156106c55780601f1061069a576101008083540402835291602001916106c5565b820191906000526020600020905b8154815290600101906020018083116106a857829003601f168201915b505050918352505060038201546020820152600482015460409091019060ff1660028111156106f6576106f661099c565b60028111156107075761070761099c565b81525050815260200190600101906105f9565b505050509050919050565b33600090815260208190526040812080548390811061074657610746610dc6565b6000918252602082206005909102019150600482015460ff1660028111156107705761077061099c565b146107bd5760405162461bcd60e51b815260206004820152601a60248201527f4368616c6c656e676520616c72656164792066696e6973686564000000000000604482015260640161051f565b60048101805460ff19166002179055600381015460405133916108fc811502916000818181858888f193505050501580156107fc573d6000803e3d6000fd5b50805460408051428152602081018590526001600160a01b039092169133917f820cb138e772438ec3d2222a042038967e2cfcd73b75fa7bf4c36cce0469693f91016105b7565b60008083601f84011261085557600080fd5b50813567ffffffffffffffff81111561086d57600080fd5b60208301915083602082850101111561088557600080fd5b9250929050565b80356001600160a01b03811681146108a357600080fd5b919050565b6000806000806000606086880312156108c057600080fd5b853567ffffffffffffffff808211156108d857600080fd5b6108e489838a01610843565b90975095508591506108f86020890161088c565b9450604088013591508082111561090e57600080fd5b5061091b88828901610843565b969995985093965092949392505050565b6000806040838503121561093f57600080fd5b6109488361088c565b946020939093013593505050565b6000815180845260005b8181101561097c57602081850181015186830182015201610960565b506000602082860101526020601f19601f83011685010191505092915050565b634e487b7160e01b600052602160045260246000fd5b600381106109d057634e487b7160e01b600052602160045260246000fd5b9052565b6001600160a01b038616815284602082015260a0604082015260006109fc60a0830186610956565b9050836060830152610a1160808301846109b2565b9695505050505050565b60008060008060008060808789031215610a3457600080fd5b863567ffffffffffffffff80821115610a4c57600080fd5b610a588a838b01610843565b9098509650869150610a6c60208a0161088c565b95506040890135915080821115610a8257600080fd5b50610a8f89828a01610843565b979a9699509497949695606090950135949350505050565b600060208284031215610ab957600080fd5b5035919050565b600060208284031215610ad257600080fd5b610adb8261088c565b9392505050565b60006020808301818452808551808352604092508286019150828160051b87010184880160005b83811015610b7e57603f19898403018552815160a06001600160a01b0382511685528882015189860152878201518189870152610b4882870182610956565b91505060608083015181870152506080808301519250610b6a818701846109b2565b509588019593505090860190600101610b09565b509098975050505050505050565b81835281816020850137506000828201602090810191909152601f909101601f19169091010190565b608081526000610bc960808301888a610b8c565b8660208401528560408401528281036060840152610be8818587610b8c565b9998505050505050505050565b600181811c90821680610c0957607f821691505b602082108103610c2957634e487b7160e01b600052602260045260246000fd5b50919050565b81810381811115610c5057634e487b7160e01b600052601160045260246000fd5b92915050565b634e487b7160e01b600052604160045260246000fd5b601f821115610cb657600081815260208120601f850160051c81016020861015610c935750805b601f850160051c820191505b81811015610cb257828155600101610c9f565b5050505b505050565b815167ffffffffffffffff811115610cd557610cd5610c56565b610ce981610ce38454610bf5565b84610c6c565b602080601f831160018114610d1e5760008415610d065750858301515b600019600386901b1c1916600185901b178555610cb2565b600085815260208120601f198616915b82811015610d4d57888601518255948401946001909101908401610d2e565b5085821015610d6b5787850151600019600388901b60f8161c191681555b5050505050600190811b01905550565b60c081526000610d8f60c083018a8c610b8c565b8860208401528760408401528281036060840152610dae818789610b8c565b6080840195909552505060a001529695505050505050565b634e487b7160e01b600052603260045260246000fdfea2646970667358221220f922065b1ab4c3c8db7eac2d6384ffa860e29331ed39833a92092baa35d772f964736f6c63430008110033",
  "devdoc": {
    "kind": "dev",
    "methods": {},
    "version": 1
  },
  "userdoc": {
    "kind": "user",
    "methods": {},
    "version": 1
  },
  "storageLayout": {
    "storage": [
      {
        "astId": 23,
        "contract": "contracts/DonationsStore.sol:DonationsStore",
        "label": "proposedChallenges",
        "offset": 0,
        "slot": "0",
        "type": "t_mapping(t_address,t_array(t_struct(Challenge)17_storage)dyn_storage)"
      }
    ],
    "types": {
      "t_address": {
        "encoding": "inplace",
        "label": "address",
        "numberOfBytes": "20"
      },
      "t_array(t_struct(Challenge)17_storage)dyn_storage": {
        "base": "t_struct(Challenge)17_storage",
        "encoding": "dynamic_array",
        "label": "struct DonationsStore.Challenge[]",
        "numberOfBytes": "32"
      },
      "t_enum(ChallengeStatus)5": {
        "encoding": "inplace",
        "label": "enum DonationsStore.ChallengeStatus",
        "numberOfBytes": "1"
      },
      "t_mapping(t_address,t_array(t_struct(Challenge)17_storage)dyn_storage)": {
        "encoding": "mapping",
        "key": "t_address",
        "label": "mapping(address => struct DonationsStore.Challenge[])",
        "numberOfBytes": "32",
        "value": "t_array(t_struct(Challenge)17_storage)dyn_storage"
      },
      "t_string_storage": {
        "encoding": "bytes",
        "label": "string",
        "numberOfBytes": "32"
      },
      "t_struct(Challenge)17_storage": {
        "encoding": "inplace",
        "label": "struct DonationsStore.Challenge",
        "members": [
          {
            "astId": 7,
            "contract": "contracts/DonationsStore.sol:DonationsStore",
            "label": "to",
            "offset": 0,
            "slot": "0",
            "type": "t_address"
          },
          {
            "astId": 9,
            "contract": "contracts/DonationsStore.sol:DonationsStore",
            "label": "timestamp",
            "offset": 0,
            "slot": "1",
            "type": "t_uint256"
          },
          {
            "astId": 11,
            "contract": "contracts/DonationsStore.sol:DonationsStore",
            "label": "terms",
            "offset": 0,
            "slot": "2",
            "type": "t_string_storage"
          },
          {
            "astId": 13,
            "contract": "contracts/DonationsStore.sol:DonationsStore",
            "label": "award",
            "offset": 0,
            "slot": "3",
            "type": "t_uint256"
          },
          {
            "astId": 16,
            "contract": "contracts/DonationsStore.sol:DonationsStore",
            "label": "status",
            "offset": 0,
            "slot": "4",
            "type": "t_enum(ChallengeStatus)5"
          }
        ],
        "numberOfBytes": "160"
      },
      "t_uint256": {
        "encoding": "inplace",
        "label": "uint256",
        "numberOfBytes": "32"
      }
    }
  }
}