{
  "address": "0xA94aC692890384951B7246E5e91F8eb4df1AeA3c",
  "abi": [
    {
      "anonymous": false,
      "inputs": [
        {
          "indexed": true,
          "internalType": "address",
          "name": "from",
          "type": "address"
        },
        {
          "indexed": true,
          "internalType": "address",
          "name": "to",
          "type": "address"
        },
        {
          "indexed": false,
          "internalType": "uint256",
          "name": "timestamp",
          "type": "uint256"
        },
        {
          "indexed": false,
          "internalType": "uint256",
          "name": "index",
          "type": "uint256"
        }
      ],
      "name": "ChallengeCompleted",
      "type": "event"
    },
    {
      "anonymous": false,
      "inputs": [
        {
          "indexed": true,
          "internalType": "address",
          "name": "from",
          "type": "address"
        },
        {
          "indexed": true,
          "internalType": "address",
          "name": "to",
          "type": "address"
        },
        {
          "indexed": false,
          "internalType": "uint256",
          "name": "timestamp",
          "type": "uint256"
        },
        {
          "indexed": false,
          "internalType": "uint256",
          "name": "index",
          "type": "uint256"
        }
      ],
      "name": "ChallengeFailed",
      "type": "event"
    },
    {
      "anonymous": false,
      "inputs": [
        {
          "indexed": true,
          "internalType": "address",
          "name": "from",
          "type": "address"
        },
        {
          "indexed": false,
          "internalType": "string",
          "name": "nickname",
          "type": "string"
        },
        {
          "indexed": true,
          "internalType": "address",
          "name": "to",
          "type": "address"
        },
        {
          "indexed": false,
          "internalType": "uint256",
          "name": "proposalPrice",
          "type": "uint256"
        },
        {
          "indexed": false,
          "internalType": "uint256",
          "name": "timestamp",
          "type": "uint256"
        },
        {
          "indexed": false,
          "internalType": "string",
          "name": "terms",
          "type": "string"
        },
        {
          "indexed": false,
          "internalType": "uint256",
          "name": "award",
          "type": "uint256"
        },
        {
          "indexed": false,
          "internalType": "uint256",
          "name": "index",
          "type": "uint256"
        }
      ],
      "name": "ChallengeProposed",
      "type": "event"
    },
    {
      "anonymous": false,
      "inputs": [
        {
          "indexed": true,
          "internalType": "address",
          "name": "from",
          "type": "address"
        },
        {
          "indexed": false,
          "internalType": "string",
          "name": "nickname",
          "type": "string"
        },
        {
          "indexed": true,
          "internalType": "address",
          "name": "to",
          "type": "address"
        },
        {
          "indexed": false,
          "internalType": "uint256",
          "name": "amount",
          "type": "uint256"
        },
        {
          "indexed": false,
          "internalType": "uint256",
          "name": "timestamp",
          "type": "uint256"
        },
        {
          "indexed": false,
          "internalType": "string",
          "name": "message",
          "type": "string"
        }
      ],
      "name": "NewDonation",
      "type": "event"
    },
    {
      "inputs": [
        {
          "internalType": "uint256",
          "name": "_index",
          "type": "uint256"
        }
      ],
      "name": "completeChallenge",
      "outputs": [],
      "stateMutability": "nonpayable",
      "type": "function"
    },
    {
      "inputs": [
        {
          "internalType": "string",
          "name": "_nickname",
          "type": "string"
        },
        {
          "internalType": "address",
          "name": "_to",
          "type": "address"
        },
        {
          "internalType": "string",
          "name": "_message",
          "type": "string"
        }
      ],
      "name": "donate",
      "outputs": [],
      "stateMutability": "payable",
      "type": "function"
    },
    {
      "inputs": [
        {
          "internalType": "uint256",
          "name": "_index",
          "type": "uint256"
        }
      ],
      "name": "failChallenge",
      "outputs": [],
      "stateMutability": "nonpayable",
      "type": "function"
    },
    {
      "inputs": [
        {
          "internalType": "string",
          "name": "_nickname",
          "type": "string"
        },
        {
          "internalType": "address",
          "name": "_to",
          "type": "address"
        },
        {
          "internalType": "string",
          "name": "_terms",
          "type": "string"
        },
        {
          "internalType": "uint256",
          "name": "_award",
          "type": "uint256"
        }
      ],
      "name": "proposeChallenge",
      "outputs": [],
      "stateMutability": "payable",
      "type": "function"
    },
    {
      "inputs": [
        {
          "internalType": "address",
          "name": "",
          "type": "address"
        },
        {
          "internalType": "uint256",
          "name": "",
          "type": "uint256"
        }
      ],
      "name": "proposedChallenges",
      "outputs": [
        {
          "internalType": "address",
          "name": "to",
          "type": "address"
        },
        {
          "internalType": "uint256",
          "name": "timestamp",
          "type": "uint256"
        },
        {
          "internalType": "string",
          "name": "terms",
          "type": "string"
        },
        {
          "internalType": "uint256",
          "name": "award",
          "type": "uint256"
        },
        {
          "internalType": "enum DonationsStore.ChallengeStatus",
          "name": "status",
          "type": "uint8"
        }
      ],
      "stateMutability": "view",
      "type": "function"
    }
  ],
  "transactionHash": "0xcc791e874c83c9469d8baba109563c58ec3ce4596b52b1fb94c8e2bb93c96fa8",
  "args": [],
  "numDeployments": 8,
  "solcInputHash": "a19c613275ee6ce37ebaf816f7216a74",
  "bytecode": "0x608060405234801561001057600080fd5b50610b9a806100206000396000f3fe60806040526004361061005a5760003560e01c80637e616eb9116100435780637e616eb9146100ae578063a7817bbc146100c1578063ea77b664146100e157600080fd5b806316ae70d41461005f5780636d9a67e814610074575b600080fd5b61007261006d36600461070e565b610101565b005b34801561008057600080fd5b5061009461008f366004610792565b610193565b6040516100a59594939291906107f4565b60405180910390f35b6100726100bc36600461086f565b610279565b3480156100cd57600080fd5b506100726100dc3660046108fb565b610453565b3480156100ed57600080fd5b506100726100fc3660046108fb565b61058b565b6040516001600160a01b038416903480156108fc02916000818181858888f19350505050158015610136573d6000803e3d6000fd5b50826001600160a01b0316336001600160a01b03167f995362ce364fef4ba9a9c889a12e2f6649633ca7b6d7750f70c4dde49e3db6cb8787344288886040516101849695949392919061093d565b60405180910390a35050505050565b600060205281600052604060002081815481106101af57600080fd5b60009182526020909120600590910201805460018201546002830180546001600160a01b039093169550909350906101e69061097d565b80601f01602080910402602001604051908101604052809291908181526020018280546102129061097d565b801561025f5780601f106102345761010080835404028352916020019161025f565b820191906000526020600020905b81548152906001019060200180831161024257829003601f168201915b50505050600383015460049093015491929160ff16905085565b600061028582346109b7565b6040519091506001600160a01b0386169082156108fc029083906000818181858888f193505050501580156102be573d6000803e3d6000fd5b503360009081526020818152604091829020825160a0810184526001600160a01b038916815242818401528351601f8801849004840281018401855287815291939092908301919088908890819084018382808284376000920182905250938552505050602082018690526040909101528154600180820184556000938452602093849020835160059093020180547fffffffffffffffffffffffff0000000000000000000000000000000000000000166001600160a01b039093169290921782559282015192810192909255604081015190919060028201906103a29082610a43565b5060608201516003820155608082015160048201805460ff191660018360028111156103d0576103d06107bc565b021790555050336000818152602081905260409020546001600160a01b03881692507f645f06cf638c825947c065f8742db4b943628b79a6109487a3310ab46a117af6908a908a90869042908b908b908b9061042e906001906109b7565b604051610442989796959493929190610b03565b60405180910390a350505050505050565b33600090815260208190526040812080548390811061047457610474610b4e565b6000918252602082206005909102019150600482015460ff16600281111561049e5761049e6107bc565b146104f05760405162461bcd60e51b815260206004820152601a60248201527f4368616c6c656e676520616c72656164792066696e697368656400000000000060448201526064015b60405180910390fd5b60048101805460ff19166001179055805460038201546040516001600160a01b03909216916108fc82150291906000818181858888f1935050505015801561053c573d6000803e3d6000fd5b50805460408051428152602081018590526001600160a01b039092169133917f793cd657799b9183ecbe97a9e0752529016bb80c446ae0c22ad427eee04c339891015b60405180910390a35050565b3360009081526020819052604081208054839081106105ac576105ac610b4e565b6000918252602082206005909102019150600482015460ff1660028111156105d6576105d66107bc565b146106235760405162461bcd60e51b815260206004820152601a60248201527f4368616c6c656e676520616c72656164792066696e697368656400000000000060448201526064016104e7565b60048101805460ff19166002179055600381015460405133916108fc811502916000818181858888f19350505050158015610662573d6000803e3d6000fd5b50805460408051428152602081018590526001600160a01b039092169133917f820cb138e772438ec3d2222a042038967e2cfcd73b75fa7bf4c36cce0469693f910161057f565b60008083601f8401126106bb57600080fd5b50813567ffffffffffffffff8111156106d357600080fd5b6020830191508360208285010111156106eb57600080fd5b9250929050565b80356001600160a01b038116811461070957600080fd5b919050565b60008060008060006060868803121561072657600080fd5b853567ffffffffffffffff8082111561073e57600080fd5b61074a89838a016106a9565b909750955085915061075e602089016106f2565b9450604088013591508082111561077457600080fd5b50610781888289016106a9565b969995985093965092949392505050565b600080604083850312156107a557600080fd5b6107ae836106f2565b946020939093013593505050565b634e487b7160e01b600052602160045260246000fd5b600381106107f057634e487b7160e01b600052602160045260246000fd5b9052565b6001600160a01b038616815260006020868184015260a0604084015285518060a085015260005b818110156108375787810183015185820160c00152820161081b565b50600060c0828601015260c0601f19601f8301168501019250505083606083015261086560808301846107d2565b9695505050505050565b6000806000806000806080878903121561088857600080fd5b863567ffffffffffffffff808211156108a057600080fd5b6108ac8a838b016106a9565b90985096508691506108c060208a016106f2565b955060408901359150808211156108d657600080fd5b506108e389828a016106a9565b979a9699509497949695606090950135949350505050565b60006020828403121561090d57600080fd5b5035919050565b81835281816020850137506000828201602090810191909152601f909101601f19169091010190565b60808152600061095160808301888a610914565b8660208401528560408401528281036060840152610970818587610914565b9998505050505050505050565b600181811c9082168061099157607f821691505b6020821081036109b157634e487b7160e01b600052602260045260246000fd5b50919050565b818103818111156109d857634e487b7160e01b600052601160045260246000fd5b92915050565b634e487b7160e01b600052604160045260246000fd5b601f821115610a3e57600081815260208120601f850160051c81016020861015610a1b5750805b601f850160051c820191505b81811015610a3a57828155600101610a27565b5050505b505050565b815167ffffffffffffffff811115610a5d57610a5d6109de565b610a7181610a6b845461097d565b846109f4565b602080601f831160018114610aa65760008415610a8e5750858301515b600019600386901b1c1916600185901b178555610a3a565b600085815260208120601f198616915b82811015610ad557888601518255948401946001909101908401610ab6565b5085821015610af35787850151600019600388901b60f8161c191681555b5050505050600190811b01905550565b60c081526000610b1760c083018a8c610914565b8860208401528760408401528281036060840152610b36818789610914565b6080840195909552505060a001529695505050505050565b634e487b7160e01b600052603260045260246000fdfea26469706673582212205bd429f24ea83719e1937dfb8754cad318f5ee6b44b286194870a3110b39e3f164736f6c63430008110033",
  "devdoc": {
    "kind": "dev",
    "methods": {},
    "version": 1
  },
  "userdoc": {
    "kind": "user",
    "methods": {},
    "version": 1
  },
  "storageLayout": {
    "storage": [
      {
        "astId": 23,
        "contract": "contracts/DonationsStore.sol:DonationsStore",
        "label": "proposedChallenges",
        "offset": 0,
        "slot": "0",
        "type": "t_mapping(t_address,t_array(t_struct(Challenge)17_storage)dyn_storage)"
      }
    ],
    "types": {
      "t_address": {
        "encoding": "inplace",
        "label": "address",
        "numberOfBytes": "20"
      },
      "t_array(t_struct(Challenge)17_storage)dyn_storage": {
        "base": "t_struct(Challenge)17_storage",
        "encoding": "dynamic_array",
        "label": "struct DonationsStore.Challenge[]",
        "numberOfBytes": "32"
      },
      "t_enum(ChallengeStatus)5": {
        "encoding": "inplace",
        "label": "enum DonationsStore.ChallengeStatus",
        "numberOfBytes": "1"
      },
      "t_mapping(t_address,t_array(t_struct(Challenge)17_storage)dyn_storage)": {
        "encoding": "mapping",
        "key": "t_address",
        "label": "mapping(address => struct DonationsStore.Challenge[])",
        "numberOfBytes": "32",
        "value": "t_array(t_struct(Challenge)17_storage)dyn_storage"
      },
      "t_string_storage": {
        "encoding": "bytes",
        "label": "string",
        "numberOfBytes": "32"
      },
      "t_struct(Challenge)17_storage": {
        "encoding": "inplace",
        "label": "struct DonationsStore.Challenge",
        "members": [
          {
            "astId": 7,
            "contract": "contracts/DonationsStore.sol:DonationsStore",
            "label": "to",
            "offset": 0,
            "slot": "0",
            "type": "t_address"
          },
          {
            "astId": 9,
            "contract": "contracts/DonationsStore.sol:DonationsStore",
            "label": "timestamp",
            "offset": 0,
            "slot": "1",
            "type": "t_uint256"
          },
          {
            "astId": 11,
            "contract": "contracts/DonationsStore.sol:DonationsStore",
            "label": "terms",
            "offset": 0,
            "slot": "2",
            "type": "t_string_storage"
          },
          {
            "astId": 13,
            "contract": "contracts/DonationsStore.sol:DonationsStore",
            "label": "award",
            "offset": 0,
            "slot": "3",
            "type": "t_uint256"
          },
          {
            "astId": 16,
            "contract": "contracts/DonationsStore.sol:DonationsStore",
            "label": "status",
            "offset": 0,
            "slot": "4",
            "type": "t_enum(ChallengeStatus)5"
          }
        ],
        "numberOfBytes": "160"
      },
      "t_uint256": {
        "encoding": "inplace",
        "label": "uint256",
        "numberOfBytes": "32"
      }
    }
  }
}