{
  "address": "0xc0D273b5497D4C0E5Df5b5c0c33B23a91cc176F0",
  "abi": [
    {
      "anonymous": false,
      "inputs": [
        {
          "indexed": true,
          "internalType": "address",
          "name": "from",
          "type": "address"
        },
        {
          "indexed": true,
          "internalType": "address",
          "name": "to",
          "type": "address"
        },
        {
          "indexed": false,
          "internalType": "uint256",
          "name": "timestamp",
          "type": "uint256"
        },
        {
          "indexed": false,
          "internalType": "uint256",
          "name": "index",
          "type": "uint256"
        },
        {
          "components": [
            {
              "internalType": "string",
              "name": "nickname",
              "type": "string"
            },
            {
              "internalType": "address",
              "name": "to",
              "type": "address"
            },
            {
              "internalType": "uint256",
              "name": "timestamp",
              "type": "uint256"
            },
            {
              "internalType": "string",
              "name": "terms",
              "type": "string"
            },
            {
              "internalType": "uint256",
              "name": "award",
              "type": "uint256"
            },
            {
              "internalType": "enum DonationsStore.ChallengeStatus",
              "name": "status",
              "type": "uint8"
            }
          ],
          "indexed": false,
          "internalType": "struct DonationsStore.Challenge",
          "name": "challenge",
          "type": "tuple"
        }
      ],
      "name": "ChallengeCompleted",
      "type": "event"
    },
    {
      "anonymous": false,
      "inputs": [
        {
          "indexed": true,
          "internalType": "address",
          "name": "from",
          "type": "address"
        },
        {
          "indexed": true,
          "internalType": "address",
          "name": "to",
          "type": "address"
        },
        {
          "indexed": false,
          "internalType": "uint256",
          "name": "timestamp",
          "type": "uint256"
        },
        {
          "indexed": false,
          "internalType": "uint256",
          "name": "index",
          "type": "uint256"
        },
        {
          "components": [
            {
              "internalType": "string",
              "name": "nickname",
              "type": "string"
            },
            {
              "internalType": "address",
              "name": "to",
              "type": "address"
            },
            {
              "internalType": "uint256",
              "name": "timestamp",
              "type": "uint256"
            },
            {
              "internalType": "string",
              "name": "terms",
              "type": "string"
            },
            {
              "internalType": "uint256",
              "name": "award",
              "type": "uint256"
            },
            {
              "internalType": "enum DonationsStore.ChallengeStatus",
              "name": "status",
              "type": "uint8"
            }
          ],
          "indexed": false,
          "internalType": "struct DonationsStore.Challenge",
          "name": "challenge",
          "type": "tuple"
        }
      ],
      "name": "ChallengeFailed",
      "type": "event"
    },
    {
      "anonymous": false,
      "inputs": [
        {
          "indexed": true,
          "internalType": "address",
          "name": "from",
          "type": "address"
        },
        {
          "indexed": false,
          "internalType": "string",
          "name": "nickname",
          "type": "string"
        },
        {
          "indexed": true,
          "internalType": "address",
          "name": "to",
          "type": "address"
        },
        {
          "indexed": false,
          "internalType": "uint256",
          "name": "proposalPrice",
          "type": "uint256"
        },
        {
          "indexed": false,
          "internalType": "uint256",
          "name": "timestamp",
          "type": "uint256"
        },
        {
          "indexed": false,
          "internalType": "string",
          "name": "terms",
          "type": "string"
        },
        {
          "indexed": false,
          "internalType": "uint256",
          "name": "award",
          "type": "uint256"
        },
        {
          "indexed": false,
          "internalType": "uint256",
          "name": "index",
          "type": "uint256"
        }
      ],
      "name": "ChallengeProposed",
      "type": "event"
    },
    {
      "anonymous": false,
      "inputs": [
        {
          "indexed": true,
          "internalType": "address",
          "name": "from",
          "type": "address"
        },
        {
          "indexed": false,
          "internalType": "string",
          "name": "nickname",
          "type": "string"
        },
        {
          "indexed": true,
          "internalType": "address",
          "name": "to",
          "type": "address"
        },
        {
          "indexed": false,
          "internalType": "uint256",
          "name": "amount",
          "type": "uint256"
        },
        {
          "indexed": false,
          "internalType": "uint256",
          "name": "timestamp",
          "type": "uint256"
        },
        {
          "indexed": false,
          "internalType": "string",
          "name": "message",
          "type": "string"
        }
      ],
      "name": "NewDonation",
      "type": "event"
    },
    {
      "inputs": [
        {
          "internalType": "uint256",
          "name": "_index",
          "type": "uint256"
        }
      ],
      "name": "completeChallenge",
      "outputs": [],
      "stateMutability": "nonpayable",
      "type": "function"
    },
    {
      "inputs": [
        {
          "internalType": "string",
          "name": "_nickname",
          "type": "string"
        },
        {
          "internalType": "address",
          "name": "_to",
          "type": "address"
        },
        {
          "internalType": "string",
          "name": "_message",
          "type": "string"
        }
      ],
      "name": "donate",
      "outputs": [],
      "stateMutability": "payable",
      "type": "function"
    },
    {
      "inputs": [
        {
          "internalType": "uint256",
          "name": "_index",
          "type": "uint256"
        }
      ],
      "name": "failChallenge",
      "outputs": [],
      "stateMutability": "nonpayable",
      "type": "function"
    },
    {
      "inputs": [
        {
          "internalType": "address",
          "name": "_donater",
          "type": "address"
        }
      ],
      "name": "getProposedChallenges",
      "outputs": [
        {
          "components": [
            {
              "internalType": "string",
              "name": "nickname",
              "type": "string"
            },
            {
              "internalType": "address",
              "name": "to",
              "type": "address"
            },
            {
              "internalType": "uint256",
              "name": "timestamp",
              "type": "uint256"
            },
            {
              "internalType": "string",
              "name": "terms",
              "type": "string"
            },
            {
              "internalType": "uint256",
              "name": "award",
              "type": "uint256"
            },
            {
              "internalType": "enum DonationsStore.ChallengeStatus",
              "name": "status",
              "type": "uint8"
            }
          ],
          "internalType": "struct DonationsStore.Challenge[]",
          "name": "",
          "type": "tuple[]"
        }
      ],
      "stateMutability": "view",
      "type": "function"
    },
    {
      "inputs": [
        {
          "internalType": "string",
          "name": "_nickname",
          "type": "string"
        },
        {
          "internalType": "address",
          "name": "_to",
          "type": "address"
        },
        {
          "internalType": "string",
          "name": "_terms",
          "type": "string"
        },
        {
          "internalType": "uint256",
          "name": "_award",
          "type": "uint256"
        }
      ],
      "name": "proposeChallenge",
      "outputs": [],
      "stateMutability": "payable",
      "type": "function"
    },
    {
      "inputs": [
        {
          "internalType": "address",
          "name": "",
          "type": "address"
        },
        {
          "internalType": "uint256",
          "name": "",
          "type": "uint256"
        }
      ],
      "name": "proposedChallenges",
      "outputs": [
        {
          "internalType": "string",
          "name": "nickname",
          "type": "string"
        },
        {
          "internalType": "address",
          "name": "to",
          "type": "address"
        },
        {
          "internalType": "uint256",
          "name": "timestamp",
          "type": "uint256"
        },
        {
          "internalType": "string",
          "name": "terms",
          "type": "string"
        },
        {
          "internalType": "uint256",
          "name": "award",
          "type": "uint256"
        },
        {
          "internalType": "enum DonationsStore.ChallengeStatus",
          "name": "status",
          "type": "uint8"
        }
      ],
      "stateMutability": "view",
      "type": "function"
    }
  ],
  "transactionHash": "0x1be53e5ad34296b647045fa619f6aad2113d1ebb72fede4968e221ac0044f71a",
  "args": [],
  "numDeployments": 11,
  "solcInputHash": "86887e9760ed4a5ad706d2aafcaebc5e",
  "bytecode": "0x608060405234801561001057600080fd5b506110ca806100206000396000f3fe6080604052600436106100655760003560e01c8063a7817bbc11610043578063a7817bbc146100cd578063b0e3173d146100ed578063ea77b6641461011a57600080fd5b806316ae70d41461006a5780636d9a67e81461007f5780637e616eb9146100ba575b600080fd5b61007d610078366004610a2b565b61013a565b005b34801561008b57600080fd5b5061009f61009a366004610aaf565b6101cc565b6040516100b196959493929190610b57565b60405180910390f35b61007d6100c8366004610bb2565b610347565b3480156100d957600080fd5b5061007d6100e8366004610c3e565b610571565b3480156100f957600080fd5b5061010d610108366004610c57565b6106b2565b6040516100b19190610c79565b34801561012657600080fd5b5061007d610135366004610c3e565b6108a7565b6040516001600160a01b038416903480156108fc02916000818181858888f1935050505015801561016f573d6000803e3d6000fd5b50826001600160a01b0316336001600160a01b03167f995362ce364fef4ba9a9c889a12e2f6649633ca7b6d7750f70c4dde49e3db6cb8787344288886040516101bd96959493929190610d67565b60405180910390a35050505050565b600060205281600052604060002081815481106101e857600080fd5b90600052602060002090600602016000915091505080600001805461020c90610da7565b80601f016020809104026020016040519081016040528092919081815260200182805461023890610da7565b80156102855780601f1061025a57610100808354040283529160200191610285565b820191906000526020600020905b81548152906001019060200180831161026857829003601f168201915b505050506001830154600284015460038501805494956001600160a01b0390931694919350906102b490610da7565b80601f01602080910402602001604051908101604052809291908181526020018280546102e090610da7565b801561032d5780601f106103025761010080835404028352916020019161032d565b820191906000526020600020905b81548152906001019060200180831161031057829003601f168201915b50505050600483015460059093015491929160ff16905086565b60006103538234610de1565b6040519091506001600160a01b0386169082156108fc029083906000818181858888f1935050505015801561038c573d6000803e3d6000fd5b503360009081526020818152604091829020825160e0601f8b018490049093028101830190935260c083018981529092918291908b908b90819085018382808284376000920191909152505050908252506001600160a01b038816602080830191909152426040808401919091528051601f890183900483028101830190915287815260609092019190889088908190840183828082843760009201829052509385525050506020808301879052604090920181905283546001810185559381522081519192600602019081906104639082610e6d565b5060208201516001820180547fffffffffffffffffffffffff0000000000000000000000000000000000000000166001600160a01b0390921691909117905560408201516002820155606082015160038201906104c09082610e6d565b506080820151600482015560a082015160058201805460ff191660018360028111156104ee576104ee610b1f565b021790555050336000818152602081905260409020546001600160a01b03881692507f645f06cf638c825947c065f8742db4b943628b79a6109487a3310ab46a117af6908a908a90869042908b908b908b9061054c90600190610de1565b604051610560989796959493929190610f2d565b60405180910390a350505050505050565b33600090815260208190526040812080548390811061059257610592610f78565b6000918252602082206006909102019150600582015460ff1660028111156105bc576105bc610b1f565b1461060e5760405162461bcd60e51b815260206004820152601a60248201527f4368616c6c656e676520616c72656164792066696e697368656400000000000060448201526064015b60405180910390fd5b60058101805460ff1916600190811790915581015460048201546040516001600160a01b03909216916108fc82150291906000818181858888f1935050505015801561065e573d6000803e3d6000fd5b5060018101546040516001600160a01b039091169033907f7b77d9b6a04f08d40a45c01af2c7179fdc4a8947b4f1ba0c23a992b156aeea34906106a69042908790879061100b565b60405180910390a35050565b6001600160a01b038116600090815260208181526040808320805482518185028101850190935280835260609492939192909184015b8282101561089c57838290600052602060002090600602016040518060c001604052908160008201805461071b90610da7565b80601f016020809104026020016040519081016040528092919081815260200182805461074790610da7565b80156107945780601f1061076957610100808354040283529160200191610794565b820191906000526020600020905b81548152906001019060200180831161077757829003601f168201915b505050918352505060018201546001600160a01b03166020820152600282015460408201526003820180546060909201916107ce90610da7565b80601f01602080910402602001604051908101604052809291908181526020018280546107fa90610da7565b80156108475780601f1061081c57610100808354040283529160200191610847565b820191906000526020600020905b81548152906001019060200180831161082a57829003601f168201915b505050918352505060048201546020820152600582015460409091019060ff16600281111561087857610878610b1f565b600281111561088957610889610b1f565b81525050815260200190600101906106e8565b505050509050919050565b3360009081526020819052604081208054839081106108c8576108c8610f78565b6000918252602082206006909102019150600582015460ff1660028111156108f2576108f2610b1f565b1461093f5760405162461bcd60e51b815260206004820152601a60248201527f4368616c6c656e676520616c72656164792066696e69736865640000000000006044820152606401610605565b60058101805460ff19166002179055600481015460405133916108fc811502916000818181858888f1935050505015801561097e573d6000803e3d6000fd5b5060018101546040516001600160a01b039091169033907f8e9afcf2391c116737c23eecd068f9a059b1566c661ade0d92564b80b8f4d3f5906106a69042908790879061100b565b60008083601f8401126109d857600080fd5b50813567ffffffffffffffff8111156109f057600080fd5b602083019150836020828501011115610a0857600080fd5b9250929050565b80356001600160a01b0381168114610a2657600080fd5b919050565b600080600080600060608688031215610a4357600080fd5b853567ffffffffffffffff80821115610a5b57600080fd5b610a6789838a016109c6565b9097509550859150610a7b60208901610a0f565b94506040880135915080821115610a9157600080fd5b50610a9e888289016109c6565b969995985093965092949392505050565b60008060408385031215610ac257600080fd5b610acb83610a0f565b946020939093013593505050565b6000815180845260005b81811015610aff57602081850181015186830182015201610ae3565b506000602082860101526020601f19601f83011685010191505092915050565b634e487b7160e01b600052602160045260246000fd5b60038110610b5357634e487b7160e01b600052602160045260246000fd5b9052565b60c081526000610b6a60c0830189610ad9565b6001600160a01b03881660208401528660408401528281036060840152610b918187610ad9565b915050836080830152610ba760a0830184610b35565b979650505050505050565b60008060008060008060808789031215610bcb57600080fd5b863567ffffffffffffffff80821115610be357600080fd5b610bef8a838b016109c6565b9098509650869150610c0360208a01610a0f565b95506040890135915080821115610c1957600080fd5b50610c2689828a016109c6565b979a9699509497949695606090950135949350505050565b600060208284031215610c5057600080fd5b5035919050565b600060208284031215610c6957600080fd5b610c7282610a0f565b9392505050565b60006020808301818452808551808352604092508286019150828160051b87010184880160005b83811015610d3057603f19898403018552815160c08151818652610cc682870182610ad9565b9150506001600160a01b03898301511689860152878201518886015260608083015186830382880152610cf98382610ad9565b92505050608080830151818701525060a0808301519250610d1c81870184610b35565b509588019593505090860190600101610ca0565b509098975050505050505050565b81835281816020850137506000828201602090810191909152601f909101601f19169091010190565b608081526000610d7b60808301888a610d3e565b8660208401528560408401528281036060840152610d9a818587610d3e565b9998505050505050505050565b600181811c90821680610dbb57607f821691505b602082108103610ddb57634e487b7160e01b600052602260045260246000fd5b50919050565b81810381811115610e0257634e487b7160e01b600052601160045260246000fd5b92915050565b634e487b7160e01b600052604160045260246000fd5b601f821115610e6857600081815260208120601f850160051c81016020861015610e455750805b601f850160051c820191505b81811015610e6457828155600101610e51565b5050505b505050565b815167ffffffffffffffff811115610e8757610e87610e08565b610e9b81610e958454610da7565b84610e1e565b602080601f831160018114610ed05760008415610eb85750858301515b600019600386901b1c1916600185901b178555610e64565b600085815260208120601f198616915b82811015610eff57888601518255948401946001909101908401610ee0565b5085821015610f1d5787850151600019600388901b60f8161c191681555b5050505050600190811b01905550565b60c081526000610f4160c083018a8c610d3e565b8860208401528760408401528281036060840152610f60818789610d3e565b6080840195909552505060a001529695505050505050565b634e487b7160e01b600052603260045260246000fd5b60008154610f9b81610da7565b808552602060018381168015610fb85760018114610fd257611000565b60ff1985168884015283151560051b880183019550611000565b866000528260002060005b85811015610ff85781548a8201860152908301908401610fdd565b890184019650505b505050505092915050565b8381528260208201526060604082015260c060608201526000611032610120830184610f8e565b60018401546001600160a01b03166080840152600284015460a0840152828103605f190160c08401526110688160038601610f8e565b9050600484015460e084015260ff60058501541661108a610100850182610b35565b509594505050505056fea264697066735822122081f5f90ff21215a5dc67879056dfbfc0f27c7a9ec79fba8bd1ce1d315e9ada2864736f6c63430008110033",
  "devdoc": {
    "kind": "dev",
    "methods": {},
    "version": 1
  },
  "userdoc": {
    "kind": "user",
    "methods": {},
    "version": 1
  },
  "storageLayout": {
    "storage": [
      {
        "astId": 25,
        "contract": "contracts/DonationsStore.sol:DonationsStore",
        "label": "proposedChallenges",
        "offset": 0,
        "slot": "0",
        "type": "t_mapping(t_address,t_array(t_struct(Challenge)19_storage)dyn_storage)"
      }
    ],
    "types": {
      "t_address": {
        "encoding": "inplace",
        "label": "address",
        "numberOfBytes": "20"
      },
      "t_array(t_struct(Challenge)19_storage)dyn_storage": {
        "base": "t_struct(Challenge)19_storage",
        "encoding": "dynamic_array",
        "label": "struct DonationsStore.Challenge[]",
        "numberOfBytes": "32"
      },
      "t_enum(ChallengeStatus)5": {
        "encoding": "inplace",
        "label": "enum DonationsStore.ChallengeStatus",
        "numberOfBytes": "1"
      },
      "t_mapping(t_address,t_array(t_struct(Challenge)19_storage)dyn_storage)": {
        "encoding": "mapping",
        "key": "t_address",
        "label": "mapping(address => struct DonationsStore.Challenge[])",
        "numberOfBytes": "32",
        "value": "t_array(t_struct(Challenge)19_storage)dyn_storage"
      },
      "t_string_storage": {
        "encoding": "bytes",
        "label": "string",
        "numberOfBytes": "32"
      },
      "t_struct(Challenge)19_storage": {
        "encoding": "inplace",
        "label": "struct DonationsStore.Challenge",
        "members": [
          {
            "astId": 7,
            "contract": "contracts/DonationsStore.sol:DonationsStore",
            "label": "nickname",
            "offset": 0,
            "slot": "0",
            "type": "t_string_storage"
          },
          {
            "astId": 9,
            "contract": "contracts/DonationsStore.sol:DonationsStore",
            "label": "to",
            "offset": 0,
            "slot": "1",
            "type": "t_address"
          },
          {
            "astId": 11,
            "contract": "contracts/DonationsStore.sol:DonationsStore",
            "label": "timestamp",
            "offset": 0,
            "slot": "2",
            "type": "t_uint256"
          },
          {
            "astId": 13,
            "contract": "contracts/DonationsStore.sol:DonationsStore",
            "label": "terms",
            "offset": 0,
            "slot": "3",
            "type": "t_string_storage"
          },
          {
            "astId": 15,
            "contract": "contracts/DonationsStore.sol:DonationsStore",
            "label": "award",
            "offset": 0,
            "slot": "4",
            "type": "t_uint256"
          },
          {
            "astId": 18,
            "contract": "contracts/DonationsStore.sol:DonationsStore",
            "label": "status",
            "offset": 0,
            "slot": "5",
            "type": "t_enum(ChallengeStatus)5"
          }
        ],
        "numberOfBytes": "192"
      },
      "t_uint256": {
        "encoding": "inplace",
        "label": "uint256",
        "numberOfBytes": "32"
      }
    }
  }
}