{
  "address": "0x68Ec6B17Fee15CA5AEfD721840D8b47a4984F203",
  "abi": [
    {
      "anonymous": false,
      "inputs": [
        {
          "indexed": false,
          "internalType": "address",
          "name": "from",
          "type": "address"
        },
        {
          "indexed": false,
          "internalType": "uint256",
          "name": "amount",
          "type": "uint256"
        },
        {
          "indexed": false,
          "internalType": "uint256",
          "name": "timestamp",
          "type": "uint256"
        },
        {
          "indexed": false,
          "internalType": "string",
          "name": "message",
          "type": "string"
        }
      ],
      "name": "NewDonation",
      "type": "event"
    },
    {
      "inputs": [
        {
          "internalType": "address",
          "name": "_to",
          "type": "address"
        },
        {
          "internalType": "string",
          "name": "_message",
          "type": "string"
        }
      ],
      "name": "donate",
      "outputs": [],
      "stateMutability": "payable",
      "type": "function"
    },
    {
      "inputs": [
        {
          "internalType": "address",
          "name": "_recipient",
          "type": "address"
        }
      ],
      "name": "getAllDonations",
      "outputs": [
        {
          "components": [
            {
              "internalType": "address",
              "name": "from",
              "type": "address"
            },
            {
              "internalType": "uint256",
              "name": "amount",
              "type": "uint256"
            },
            {
              "internalType": "uint256",
              "name": "timestamp",
              "type": "uint256"
            },
            {
              "internalType": "string",
              "name": "message",
              "type": "string"
            }
          ],
          "internalType": "struct DonationsStore.Donation[]",
          "name": "",
          "type": "tuple[]"
        }
      ],
      "stateMutability": "view",
      "type": "function"
    },
    {
      "inputs": [
        {
          "internalType": "address",
          "name": "_recipient",
          "type": "address"
        },
        {
          "internalType": "uint256",
          "name": "_index",
          "type": "uint256"
        }
      ],
      "name": "getDonation",
      "outputs": [
        {
          "components": [
            {
              "internalType": "address",
              "name": "from",
              "type": "address"
            },
            {
              "internalType": "uint256",
              "name": "amount",
              "type": "uint256"
            },
            {
              "internalType": "uint256",
              "name": "timestamp",
              "type": "uint256"
            },
            {
              "internalType": "string",
              "name": "message",
              "type": "string"
            }
          ],
          "internalType": "struct DonationsStore.Donation",
          "name": "",
          "type": "tuple"
        }
      ],
      "stateMutability": "view",
      "type": "function"
    },
    {
      "inputs": [
        {
          "internalType": "address",
          "name": "_recipient",
          "type": "address"
        }
      ],
      "name": "getInfo",
      "outputs": [
        {
          "internalType": "string",
          "name": "",
          "type": "string"
        },
        {
          "internalType": "string",
          "name": "",
          "type": "string"
        }
      ],
      "stateMutability": "view",
      "type": "function"
    },
    {
      "inputs": [
        {
          "internalType": "address",
          "name": "_recipient",
          "type": "address"
        }
      ],
      "name": "getUnpaidAmount",
      "outputs": [
        {
          "internalType": "uint256",
          "name": "",
          "type": "uint256"
        }
      ],
      "stateMutability": "view",
      "type": "function"
    },
    {
      "inputs": [
        {
          "internalType": "string",
          "name": "_nickname",
          "type": "string"
        },
        {
          "internalType": "string",
          "name": "_avatarURI",
          "type": "string"
        }
      ],
      "name": "setInfo",
      "outputs": [],
      "stateMutability": "nonpayable",
      "type": "function"
    },
    {
      "inputs": [],
      "name": "withdrawDonations",
      "outputs": [],
      "stateMutability": "nonpayable",
      "type": "function"
    }
  ],
  "transactionHash": "0x2460944b9c3fcc9b138941fdb4d2ee81eaecada97925507a153a79375542ea78",
  "args": [],
  "numDeployments": 2,
  "solcInputHash": "f613d25a31fe955b926b71bb56e6b153",
  "bytecode": "0x608060405234801561001057600080fd5b50610cec806100206000396000f3fe6080604052600436106100705760003560e01c8063698f34e31161004e578063698f34e314610103578063a923fc4014610130578063ce1b088a14610150578063ffdd5cf11461016557600080fd5b80631f0055a21461007557806338e48f70146100c1578063429c14d7146100ee575b600080fd5b34801561008157600080fd5b506100ae610090366004610792565b6001600160a01b031660009081526020819052604090206002015490565b6040519081526020015b60405180910390f35b3480156100cd57600080fd5b506100e16100dc3660046107b4565b610193565b6040516100b89190610868565b6101016100fc3660046108c4565b6102eb565b005b34801561010f57600080fd5b5061012361011e366004610792565b610464565b6040516100b89190610917565b34801561013c57600080fd5b5061010161014b366004610979565b610597565b34801561015c57600080fd5b506101016105d6565b34801561017157600080fd5b50610185610180366004610792565b610632565b6040516100b89291906109e5565b6101c7604051806080016040528060006001600160a01b031681526020016000815260200160008152602001606081525090565b6001600160a01b03831660009081526020819052604090206003018054839081106101f4576101f4610a13565b90600052602060002090600402016040518060800160405290816000820160009054906101000a90046001600160a01b03166001600160a01b03166001600160a01b03168152602001600182015481526020016002820154815260200160038201805461026090610a29565b80601f016020809104026020016040519081016040528092919081815260200182805461028c90610a29565b80156102d95780601f106102ae576101008083540402835291602001916102d9565b820191906000526020600020905b8154815290600101906020018083116102bc57829003601f168201915b50505050508152505090505b92915050565b600080846001600160a01b03166001600160a01b031681526020019081526020016000206003016040518060800160405280336001600160a01b0316815260200134815260200142815260200184848080601f0160208091040260200160405190810160405280939291908181526020018383808284376000920182905250939094525050835460018082018655948252602091829020845160049092020180547fffffffffffffffffffffffff0000000000000000000000000000000000000000166001600160a01b0390921691909117815590830151938101939093555060408101516002830155606081015190919060038201906103ec9082610ac8565b5050506001600160a01b0383166000908152602081905260408120600201805434929061041a908490610b88565b90915550506040517f1747b996ce8b310ff7a55e00066d88fc1bb2bcbe166bb80e479c4cc201d5e7a2906104579033903490429087908790610ba9565b60405180910390a1505050565b6001600160a01b038116600090815260208181526040808320600301805482518185028101850190935280835260609492939192909184015b8282101561058c576000848152602090819020604080516080810182526004860290920180546001600160a01b031683526001810154938301939093526002830154908201526003820180549192916060840191906104fb90610a29565b80601f016020809104026020016040519081016040528092919081815260200182805461052790610a29565b80156105745780601f1061054957610100808354040283529160200191610574565b820191906000526020600020905b81548152906001019060200180831161055757829003601f168201915b5050505050815250508152602001906001019061049d565b505050509050919050565b3360009081526020819052604090206105b1848683610bf6565b503360009081526020819052604090206001016105cf828483610bf6565b5050505050565b33600081815260208190526040808220600201549051839282156108fc02929190818181858888f19350505050158015610614573d6000803e3d6000fd5b506001600160a01b0316600090815260208190526040812060020155565b6001600160a01b0381166000908152602081905260409020805460609182916001820190829061066190610a29565b80601f016020809104026020016040519081016040528092919081815260200182805461068d90610a29565b80156106da5780601f106106af576101008083540402835291602001916106da565b820191906000526020600020905b8154815290600101906020018083116106bd57829003601f168201915b505050505091508080546106ed90610a29565b80601f016020809104026020016040519081016040528092919081815260200182805461071990610a29565b80156107665780601f1061073b57610100808354040283529160200191610766565b820191906000526020600020905b81548152906001019060200180831161074957829003601f168201915b5050505050905091509150915091565b80356001600160a01b038116811461078d57600080fd5b919050565b6000602082840312156107a457600080fd5b6107ad82610776565b9392505050565b600080604083850312156107c757600080fd5b6107d083610776565b946020939093013593505050565b6000815180845260005b81811015610804576020818501810151868301820152016107e8565b506000602082860101526020601f19601f83011685010191505092915050565b6001600160a01b0381511682526020810151602083015260408101516040830152600060608201516080606085015261086060808501826107de565b949350505050565b6020815260006107ad6020830184610824565b60008083601f84011261088d57600080fd5b50813567ffffffffffffffff8111156108a557600080fd5b6020830191508360208285010111156108bd57600080fd5b9250929050565b6000806000604084860312156108d957600080fd5b6108e284610776565b9250602084013567ffffffffffffffff8111156108fe57600080fd5b61090a8682870161087b565b9497909650939450505050565b6000602080830181845280855180835260408601915060408160051b870101925083870160005b8281101561096c57603f1988860301845261095a858351610824565b9450928501929085019060010161093e565b5092979650505050505050565b6000806000806040858703121561098f57600080fd5b843567ffffffffffffffff808211156109a757600080fd5b6109b38883890161087b565b909650945060208701359150808211156109cc57600080fd5b506109d98782880161087b565b95989497509550505050565b6040815260006109f860408301856107de565b8281036020840152610a0a81856107de565b95945050505050565b634e487b7160e01b600052603260045260246000fd5b600181811c90821680610a3d57607f821691505b602082108103610a5d57634e487b7160e01b600052602260045260246000fd5b50919050565b634e487b7160e01b600052604160045260246000fd5b601f821115610ac357600081815260208120601f850160051c81016020861015610aa05750805b601f850160051c820191505b81811015610abf57828155600101610aac565b5050505b505050565b815167ffffffffffffffff811115610ae257610ae2610a63565b610af681610af08454610a29565b84610a79565b602080601f831160018114610b2b5760008415610b135750858301515b600019600386901b1c1916600185901b178555610abf565b600085815260208120601f198616915b82811015610b5a57888601518255948401946001909101908401610b3b565b5085821015610b785787850151600019600388901b60f8161c191681555b5050505050600190811b01905550565b808201808211156102e557634e487b7160e01b600052601160045260246000fd5b6001600160a01b038616815284602082015283604082015260806060820152816080820152818360a0830137600081830160a090810191909152601f909201601f19160101949350505050565b67ffffffffffffffff831115610c0e57610c0e610a63565b610c2283610c1c8354610a29565b83610a79565b6000601f841160018114610c565760008515610c3e5750838201355b600019600387901b1c1916600186901b1783556105cf565b600083815260209020601f19861690835b82811015610c875786850135825560209485019460019092019101610c67565b5086821015610ca45760001960f88860031b161c19848701351681555b505060018560011b018355505050505056fea2646970667358221220828e8893762adaf3d777e237fbeb4d908266267f02f1200d96ac257aca378ecd64736f6c63430008110033",
  "devdoc": {
    "kind": "dev",
    "methods": {},
    "version": 1
  },
  "userdoc": {
    "kind": "user",
    "methods": {},
    "version": 1
  },
  "storageLayout": {
    "storage": [
      {
        "astId": 36,
        "contract": "contracts/DonationsStore.sol:DonationsStore",
        "label": "recipients",
        "offset": 0,
        "slot": "0",
        "type": "t_mapping(t_address,t_struct(RecipientInfo)21_storage)"
      }
    ],
    "types": {
      "t_address": {
        "encoding": "inplace",
        "label": "address",
        "numberOfBytes": "20"
      },
      "t_array(t_struct(Donation)10_storage)dyn_storage": {
        "base": "t_struct(Donation)10_storage",
        "encoding": "dynamic_array",
        "label": "struct DonationsStore.Donation[]",
        "numberOfBytes": "32"
      },
      "t_mapping(t_address,t_struct(RecipientInfo)21_storage)": {
        "encoding": "mapping",
        "key": "t_address",
        "label": "mapping(address => struct DonationsStore.RecipientInfo)",
        "numberOfBytes": "32",
        "value": "t_struct(RecipientInfo)21_storage"
      },
      "t_string_storage": {
        "encoding": "bytes",
        "label": "string",
        "numberOfBytes": "32"
      },
      "t_struct(Donation)10_storage": {
        "encoding": "inplace",
        "label": "struct DonationsStore.Donation",
        "members": [
          {
            "astId": 3,
            "contract": "contracts/DonationsStore.sol:DonationsStore",
            "label": "from",
            "offset": 0,
            "slot": "0",
            "type": "t_address"
          },
          {
            "astId": 5,
            "contract": "contracts/DonationsStore.sol:DonationsStore",
            "label": "amount",
            "offset": 0,
            "slot": "1",
            "type": "t_uint256"
          },
          {
            "astId": 7,
            "contract": "contracts/DonationsStore.sol:DonationsStore",
            "label": "timestamp",
            "offset": 0,
            "slot": "2",
            "type": "t_uint256"
          },
          {
            "astId": 9,
            "contract": "contracts/DonationsStore.sol:DonationsStore",
            "label": "message",
            "offset": 0,
            "slot": "3",
            "type": "t_string_storage"
          }
        ],
        "numberOfBytes": "128"
      },
      "t_struct(RecipientInfo)21_storage": {
        "encoding": "inplace",
        "label": "struct DonationsStore.RecipientInfo",
        "members": [
          {
            "astId": 12,
            "contract": "contracts/DonationsStore.sol:DonationsStore",
            "label": "nickname",
            "offset": 0,
            "slot": "0",
            "type": "t_string_storage"
          },
          {
            "astId": 14,
            "contract": "contracts/DonationsStore.sol:DonationsStore",
            "label": "avatarURI",
            "offset": 0,
            "slot": "1",
            "type": "t_string_storage"
          },
          {
            "astId": 16,
            "contract": "contracts/DonationsStore.sol:DonationsStore",
            "label": "unpaidAmount",
            "offset": 0,
            "slot": "2",
            "type": "t_uint256"
          },
          {
            "astId": 20,
            "contract": "contracts/DonationsStore.sol:DonationsStore",
            "label": "donations",
            "offset": 0,
            "slot": "3",
            "type": "t_array(t_struct(Donation)10_storage)dyn_storage"
          }
        ],
        "numberOfBytes": "128"
      },
      "t_uint256": {
        "encoding": "inplace",
        "label": "uint256",
        "numberOfBytes": "32"
      }
    }
  }
}