{
  "address": "0xe7dDe724C90a80F139180a3e3B2216DF8d87654c",
  "abi": [
    {
      "anonymous": false,
      "inputs": [
        {
          "indexed": false,
          "internalType": "address",
          "name": "from",
          "type": "address"
        },
        {
          "indexed": false,
          "internalType": "uint256",
          "name": "amount",
          "type": "uint256"
        },
        {
          "indexed": false,
          "internalType": "uint256",
          "name": "timestamp",
          "type": "uint256"
        },
        {
          "indexed": false,
          "internalType": "string",
          "name": "message",
          "type": "string"
        }
      ],
      "name": "NewDonation",
      "type": "event"
    },
    {
      "inputs": [
        {
          "internalType": "address",
          "name": "_to",
          "type": "address"
        },
        {
          "internalType": "string",
          "name": "_message",
          "type": "string"
        }
      ],
      "name": "donate",
      "outputs": [],
      "stateMutability": "payable",
      "type": "function"
    },
    {
      "inputs": [
        {
          "internalType": "address",
          "name": "_recipient",
          "type": "address"
        }
      ],
      "name": "getAllDonations",
      "outputs": [
        {
          "components": [
            {
              "internalType": "address",
              "name": "from",
              "type": "address"
            },
            {
              "internalType": "uint256",
              "name": "amount",
              "type": "uint256"
            },
            {
              "internalType": "uint256",
              "name": "timestamp",
              "type": "uint256"
            },
            {
              "internalType": "string",
              "name": "message",
              "type": "string"
            }
          ],
          "internalType": "struct DonationsStore.Donation[]",
          "name": "",
          "type": "tuple[]"
        }
      ],
      "stateMutability": "view",
      "type": "function"
    },
    {
      "inputs": [
        {
          "internalType": "address",
          "name": "_recipient",
          "type": "address"
        },
        {
          "internalType": "uint256",
          "name": "_index",
          "type": "uint256"
        }
      ],
      "name": "getDonation",
      "outputs": [
        {
          "components": [
            {
              "internalType": "address",
              "name": "from",
              "type": "address"
            },
            {
              "internalType": "uint256",
              "name": "amount",
              "type": "uint256"
            },
            {
              "internalType": "uint256",
              "name": "timestamp",
              "type": "uint256"
            },
            {
              "internalType": "string",
              "name": "message",
              "type": "string"
            }
          ],
          "internalType": "struct DonationsStore.Donation",
          "name": "",
          "type": "tuple"
        }
      ],
      "stateMutability": "view",
      "type": "function"
    },
    {
      "inputs": [
        {
          "internalType": "address",
          "name": "_recipient",
          "type": "address"
        }
      ],
      "name": "getInfo",
      "outputs": [
        {
          "internalType": "string",
          "name": "",
          "type": "string"
        },
        {
          "internalType": "string",
          "name": "",
          "type": "string"
        }
      ],
      "stateMutability": "view",
      "type": "function"
    },
    {
      "inputs": [
        {
          "internalType": "string",
          "name": "_nickname",
          "type": "string"
        },
        {
          "internalType": "string",
          "name": "_avatarURI",
          "type": "string"
        }
      ],
      "name": "setInfo",
      "outputs": [],
      "stateMutability": "nonpayable",
      "type": "function"
    }
  ],
  "transactionHash": "0xd7a782c86cdb09f5f6de3dd02a9305828fc2404ae656ef8f0a98ba3e6622f005",
  "args": [],
  "numDeployments": 3,
  "solcInputHash": "97c01f177be75325618fd6a5015193ea",
  "bytecode": "0x608060405234801561001057600080fd5b50610c05806100206000396000f3fe60806040526004361061005a5760003560e01c8063698f34e311610043578063698f34e3146100aa578063a923fc40146100d7578063ffdd5cf1146100f757600080fd5b806338e48f701461005f578063429c14d714610095575b600080fd5b34801561006b57600080fd5b5061007f61007a3660046106cc565b610125565b60405161008c9190610780565b60405180910390f35b6100a86100a33660046107e3565b61027c565b005b3480156100b657600080fd5b506100ca6100c5366004610836565b6103fa565b60405161008c9190610851565b3480156100e357600080fd5b506100a86100f23660046108b3565b61052d565b34801561010357600080fd5b50610117610112366004610836565b61056c565b60405161008c92919061091f565b610159604051806080016040528060006001600160a01b031681526020016000815260200160008152602001606081525090565b6001600160a01b03831660009081526020819052604090206002018054839081106101865761018661094d565b90600052602060002090600402016040518060800160405290816000820160009054906101000a90046001600160a01b03166001600160a01b03166001600160a01b0316815260200160018201548152602001600282015481526020016003820180546101f290610963565b80601f016020809104026020016040519081016040528092919081815260200182805461021e90610963565b801561026b5780601f106102405761010080835404028352916020019161026b565b820191906000526020600020905b81548152906001019060200180831161024e57829003601f168201915b505050505081525050905092915050565b600080846001600160a01b03166001600160a01b031681526020019081526020016000206002016040518060800160405280336001600160a01b0316815260200134815260200142815260200184848080601f0160208091040260200160405190810160405280939291908181526020018383808284376000920182905250939094525050835460018082018655948252602091829020845160049092020180547fffffffffffffffffffffffff0000000000000000000000000000000000000000166001600160a01b03909216919091178155908301519381019390935550604081015160028301556060810151909190600382019061037d9082610a02565b50506040516001600160a01b03851691503480156108fc02916000818181858888f193505050501580156103b5573d6000803e3d6000fd5b507f1747b996ce8b310ff7a55e00066d88fc1bb2bcbe166bb80e479c4cc201d5e7a233344285856040516103ed959493929190610ac2565b60405180910390a1505050565b6001600160a01b038116600090815260208181526040808320600201805482518185028101850190935280835260609492939192909184015b82821015610522576000848152602090819020604080516080810182526004860290920180546001600160a01b0316835260018101549383019390935260028301549082015260038201805491929160608401919061049190610963565b80601f01602080910402602001604051908101604052809291908181526020018280546104bd90610963565b801561050a5780601f106104df5761010080835404028352916020019161050a565b820191906000526020600020905b8154815290600101906020018083116104ed57829003601f168201915b50505050508152505081526020019060010190610433565b505050509050919050565b336000908152602081905260409020610547848683610b0f565b50336000908152602081905260409020600101610565828483610b0f565b5050505050565b6001600160a01b0381166000908152602081905260409020805460609182916001820190829061059b90610963565b80601f01602080910402602001604051908101604052809291908181526020018280546105c790610963565b80156106145780601f106105e957610100808354040283529160200191610614565b820191906000526020600020905b8154815290600101906020018083116105f757829003601f168201915b5050505050915080805461062790610963565b80601f016020809104026020016040519081016040528092919081815260200182805461065390610963565b80156106a05780601f10610675576101008083540402835291602001916106a0565b820191906000526020600020905b81548152906001019060200180831161068357829003601f168201915b5050505050905091509150915091565b80356001600160a01b03811681146106c757600080fd5b919050565b600080604083850312156106df57600080fd5b6106e8836106b0565b946020939093013593505050565b6000815180845260005b8181101561071c57602081850181015186830182015201610700565b506000602082860101526020601f19601f83011685010191505092915050565b6001600160a01b0381511682526020810151602083015260408101516040830152600060608201516080606085015261077860808501826106f6565b949350505050565b602081526000610793602083018461073c565b9392505050565b60008083601f8401126107ac57600080fd5b50813567ffffffffffffffff8111156107c457600080fd5b6020830191508360208285010111156107dc57600080fd5b9250929050565b6000806000604084860312156107f857600080fd5b610801846106b0565b9250602084013567ffffffffffffffff81111561081d57600080fd5b6108298682870161079a565b9497909650939450505050565b60006020828403121561084857600080fd5b610793826106b0565b6000602080830181845280855180835260408601915060408160051b870101925083870160005b828110156108a657603f1988860301845261089485835161073c565b94509285019290850190600101610878565b5092979650505050505050565b600080600080604085870312156108c957600080fd5b843567ffffffffffffffff808211156108e157600080fd5b6108ed8883890161079a565b9096509450602087013591508082111561090657600080fd5b506109138782880161079a565b95989497509550505050565b60408152600061093260408301856106f6565b828103602084015261094481856106f6565b95945050505050565b634e487b7160e01b600052603260045260246000fd5b600181811c9082168061097757607f821691505b60208210810361099757634e487b7160e01b600052602260045260246000fd5b50919050565b634e487b7160e01b600052604160045260246000fd5b601f8211156109fd57600081815260208120601f850160051c810160208610156109da5750805b601f850160051c820191505b818110156109f9578281556001016109e6565b5050505b505050565b815167ffffffffffffffff811115610a1c57610a1c61099d565b610a3081610a2a8454610963565b846109b3565b602080601f831160018114610a655760008415610a4d5750858301515b600019600386901b1c1916600185901b1785556109f9565b600085815260208120601f198616915b82811015610a9457888601518255948401946001909101908401610a75565b5085821015610ab25787850151600019600388901b60f8161c191681555b5050505050600190811b01905550565b6001600160a01b038616815284602082015283604082015260806060820152816080820152818360a0830137600081830160a090810191909152601f909201601f19160101949350505050565b67ffffffffffffffff831115610b2757610b2761099d565b610b3b83610b358354610963565b836109b3565b6000601f841160018114610b6f5760008515610b575750838201355b600019600387901b1c1916600186901b178355610565565b600083815260209020601f19861690835b82811015610ba05786850135825560209485019460019092019101610b80565b5086821015610bbd5760001960f88860031b161c19848701351681555b505060018560011b018355505050505056fea26469706673582212206c69bd0d59e91d7cfa4e1c77f506e76f0d24c8bfbb423ed41f30cb4093090c5264736f6c63430008110033",
  "devdoc": {
    "kind": "dev",
    "methods": {},
    "version": 1
  },
  "userdoc": {
    "kind": "user",
    "methods": {},
    "version": 1
  },
  "storageLayout": {
    "storage": [
      {
        "astId": 34,
        "contract": "contracts/DonationsStore.sol:DonationsStore",
        "label": "recipients",
        "offset": 0,
        "slot": "0",
        "type": "t_mapping(t_address,t_struct(RecipientInfo)19_storage)"
      }
    ],
    "types": {
      "t_address": {
        "encoding": "inplace",
        "label": "address",
        "numberOfBytes": "20"
      },
      "t_array(t_struct(Donation)10_storage)dyn_storage": {
        "base": "t_struct(Donation)10_storage",
        "encoding": "dynamic_array",
        "label": "struct DonationsStore.Donation[]",
        "numberOfBytes": "32"
      },
      "t_mapping(t_address,t_struct(RecipientInfo)19_storage)": {
        "encoding": "mapping",
        "key": "t_address",
        "label": "mapping(address => struct DonationsStore.RecipientInfo)",
        "numberOfBytes": "32",
        "value": "t_struct(RecipientInfo)19_storage"
      },
      "t_string_storage": {
        "encoding": "bytes",
        "label": "string",
        "numberOfBytes": "32"
      },
      "t_struct(Donation)10_storage": {
        "encoding": "inplace",
        "label": "struct DonationsStore.Donation",
        "members": [
          {
            "astId": 3,
            "contract": "contracts/DonationsStore.sol:DonationsStore",
            "label": "from",
            "offset": 0,
            "slot": "0",
            "type": "t_address"
          },
          {
            "astId": 5,
            "contract": "contracts/DonationsStore.sol:DonationsStore",
            "label": "amount",
            "offset": 0,
            "slot": "1",
            "type": "t_uint256"
          },
          {
            "astId": 7,
            "contract": "contracts/DonationsStore.sol:DonationsStore",
            "label": "timestamp",
            "offset": 0,
            "slot": "2",
            "type": "t_uint256"
          },
          {
            "astId": 9,
            "contract": "contracts/DonationsStore.sol:DonationsStore",
            "label": "message",
            "offset": 0,
            "slot": "3",
            "type": "t_string_storage"
          }
        ],
        "numberOfBytes": "128"
      },
      "t_struct(RecipientInfo)19_storage": {
        "encoding": "inplace",
        "label": "struct DonationsStore.RecipientInfo",
        "members": [
          {
            "astId": 12,
            "contract": "contracts/DonationsStore.sol:DonationsStore",
            "label": "nickname",
            "offset": 0,
            "slot": "0",
            "type": "t_string_storage"
          },
          {
            "astId": 14,
            "contract": "contracts/DonationsStore.sol:DonationsStore",
            "label": "avatarURI",
            "offset": 0,
            "slot": "1",
            "type": "t_string_storage"
          },
          {
            "astId": 18,
            "contract": "contracts/DonationsStore.sol:DonationsStore",
            "label": "donations",
            "offset": 0,
            "slot": "2",
            "type": "t_array(t_struct(Donation)10_storage)dyn_storage"
          }
        ],
        "numberOfBytes": "96"
      },
      "t_uint256": {
        "encoding": "inplace",
        "label": "uint256",
        "numberOfBytes": "32"
      }
    }
  }
}