{
  "address": "0xD854462cc2f1f5883113F29E0b0C6F3180326655",
  "abi": [
    {
      "anonymous": false,
      "inputs": [
        {
          "indexed": false,
          "internalType": "address",
          "name": "from",
          "type": "address"
        },
        {
          "indexed": false,
          "internalType": "uint256",
          "name": "amount",
          "type": "uint256"
        },
        {
          "indexed": false,
          "internalType": "uint256",
          "name": "timestamp",
          "type": "uint256"
        },
        {
          "indexed": false,
          "internalType": "string",
          "name": "message",
          "type": "string"
        }
      ],
      "name": "NewDonation",
      "type": "event"
    },
    {
      "inputs": [
        {
          "internalType": "address",
          "name": "_to",
          "type": "address"
        },
        {
          "internalType": "string",
          "name": "_message",
          "type": "string"
        }
      ],
      "name": "donate",
      "outputs": [],
      "stateMutability": "payable",
      "type": "function"
    },
    {
      "inputs": [
        {
          "internalType": "address",
          "name": "_recipient",
          "type": "address"
        },
        {
          "internalType": "uint256",
          "name": "_index",
          "type": "uint256"
        }
      ],
      "name": "getDonation",
      "outputs": [
        {
          "components": [
            {
              "internalType": "address",
              "name": "from",
              "type": "address"
            },
            {
              "internalType": "uint256",
              "name": "amount",
              "type": "uint256"
            },
            {
              "internalType": "uint256",
              "name": "timestamp",
              "type": "uint256"
            },
            {
              "internalType": "string",
              "name": "message",
              "type": "string"
            }
          ],
          "internalType": "struct DonationsStore.Donation",
          "name": "",
          "type": "tuple"
        }
      ],
      "stateMutability": "view",
      "type": "function"
    },
    {
      "inputs": [
        {
          "internalType": "address",
          "name": "_recipient",
          "type": "address"
        }
      ],
      "name": "getInfo",
      "outputs": [
        {
          "internalType": "string",
          "name": "",
          "type": "string"
        },
        {
          "internalType": "string",
          "name": "",
          "type": "string"
        }
      ],
      "stateMutability": "view",
      "type": "function"
    },
    {
      "inputs": [
        {
          "internalType": "address",
          "name": "_recipient",
          "type": "address"
        }
      ],
      "name": "getUnpaidAmount",
      "outputs": [
        {
          "internalType": "uint256",
          "name": "",
          "type": "uint256"
        }
      ],
      "stateMutability": "view",
      "type": "function"
    },
    {
      "inputs": [
        {
          "internalType": "string",
          "name": "_nickname",
          "type": "string"
        },
        {
          "internalType": "string",
          "name": "_avatarURI",
          "type": "string"
        }
      ],
      "name": "setInfo",
      "outputs": [],
      "stateMutability": "nonpayable",
      "type": "function"
    },
    {
      "inputs": [],
      "name": "withdrawDonations",
      "outputs": [],
      "stateMutability": "nonpayable",
      "type": "function"
    }
  ],
  "transactionHash": "0xf83923abcfd981e0b0e56e7e3749fbddfce3c0de82263fb883010bbc1dcd3462",
  "args": [],
  "numDeployments": 1,
  "solcInputHash": "eb12eace5bf4d2da328e1e3f528b4064",
  "bytecode": "0x608060405234801561001057600080fd5b50610b12806100206000396000f3fe6080604052600436106100655760003560e01c8063a923fc4011610043578063a923fc40146100f8578063ce1b088a14610118578063ffdd5cf11461012d57600080fd5b80631f0055a21461006a57806338e48f70146100b6578063429c14d7146100e3575b600080fd5b34801561007657600080fd5b506100a3610085366004610627565b6001600160a01b031660009081526020819052604090206002015490565b6040519081526020015b60405180910390f35b3480156100c257600080fd5b506100d66100d1366004610649565b61015b565b6040516100ad91906106b9565b6100f66100f136600461074c565b6102b3565b005b34801561010457600080fd5b506100f661011336600461079f565b61042c565b34801561012457600080fd5b506100f661046b565b34801561013957600080fd5b5061014d610148366004610627565b6104c7565b6040516100ad92919061080b565b61018f604051806080016040528060006001600160a01b031681526020016000815260200160008152602001606081525090565b6001600160a01b03831660009081526020819052604090206003018054839081106101bc576101bc610839565b90600052602060002090600402016040518060800160405290816000820160009054906101000a90046001600160a01b03166001600160a01b03166001600160a01b0316815260200160018201548152602001600282015481526020016003820180546102289061084f565b80601f01602080910402602001604051908101604052809291908181526020018280546102549061084f565b80156102a15780601f10610276576101008083540402835291602001916102a1565b820191906000526020600020905b81548152906001019060200180831161028457829003601f168201915b50505050508152505090505b92915050565b600080846001600160a01b03166001600160a01b031681526020019081526020016000206003016040518060800160405280336001600160a01b0316815260200134815260200142815260200184848080601f0160208091040260200160405190810160405280939291908181526020018383808284376000920182905250939094525050835460018082018655948252602091829020845160049092020180547fffffffffffffffffffffffff0000000000000000000000000000000000000000166001600160a01b0390921691909117815590830151938101939093555060408101516002830155606081015190919060038201906103b490826108ee565b5050506001600160a01b038316600090815260208190526040812060020180543492906103e29084906109ae565b90915550506040517f1747b996ce8b310ff7a55e00066d88fc1bb2bcbe166bb80e479c4cc201d5e7a29061041f90339034904290879087906109cf565b60405180910390a1505050565b336000908152602081905260409020610446848683610a1c565b50336000908152602081905260409020600101610464828483610a1c565b5050505050565b33600081815260208190526040808220600201549051839282156108fc02929190818181858888f193505050501580156104a9573d6000803e3d6000fd5b506001600160a01b0316600090815260208190526040812060020155565b6001600160a01b038116600090815260208190526040902080546060918291600182019082906104f69061084f565b80601f01602080910402602001604051908101604052809291908181526020018280546105229061084f565b801561056f5780601f106105445761010080835404028352916020019161056f565b820191906000526020600020905b81548152906001019060200180831161055257829003601f168201915b505050505091508080546105829061084f565b80601f01602080910402602001604051908101604052809291908181526020018280546105ae9061084f565b80156105fb5780601f106105d0576101008083540402835291602001916105fb565b820191906000526020600020905b8154815290600101906020018083116105de57829003601f168201915b5050505050905091509150915091565b80356001600160a01b038116811461062257600080fd5b919050565b60006020828403121561063957600080fd5b6106428261060b565b9392505050565b6000806040838503121561065c57600080fd5b6106658361060b565b946020939093013593505050565b6000815180845260005b818110156106995760208185018101518683018201520161067d565b506000602082860101526020601f19601f83011685010191505092915050565b602081526001600160a01b0382511660208201526020820151604082015260408201516060820152600060608301516080808401526106fb60a0840182610673565b949350505050565b60008083601f84011261071557600080fd5b50813567ffffffffffffffff81111561072d57600080fd5b60208301915083602082850101111561074557600080fd5b9250929050565b60008060006040848603121561076157600080fd5b61076a8461060b565b9250602084013567ffffffffffffffff81111561078657600080fd5b61079286828701610703565b9497909650939450505050565b600080600080604085870312156107b557600080fd5b843567ffffffffffffffff808211156107cd57600080fd5b6107d988838901610703565b909650945060208701359150808211156107f257600080fd5b506107ff87828801610703565b95989497509550505050565b60408152600061081e6040830185610673565b82810360208401526108308185610673565b95945050505050565b634e487b7160e01b600052603260045260246000fd5b600181811c9082168061086357607f821691505b60208210810361088357634e487b7160e01b600052602260045260246000fd5b50919050565b634e487b7160e01b600052604160045260246000fd5b601f8211156108e957600081815260208120601f850160051c810160208610156108c65750805b601f850160051c820191505b818110156108e5578281556001016108d2565b5050505b505050565b815167ffffffffffffffff81111561090857610908610889565b61091c81610916845461084f565b8461089f565b602080601f83116001811461095157600084156109395750858301515b600019600386901b1c1916600185901b1785556108e5565b600085815260208120601f198616915b8281101561098057888601518255948401946001909101908401610961565b508582101561099e5787850151600019600388901b60f8161c191681555b5050505050600190811b01905550565b808201808211156102ad57634e487b7160e01b600052601160045260246000fd5b6001600160a01b038616815284602082015283604082015260806060820152816080820152818360a0830137600081830160a090810191909152601f909201601f19160101949350505050565b67ffffffffffffffff831115610a3457610a34610889565b610a4883610a42835461084f565b8361089f565b6000601f841160018114610a7c5760008515610a645750838201355b600019600387901b1c1916600186901b178355610464565b600083815260209020601f19861690835b82811015610aad5786850135825560209485019460019092019101610a8d565b5086821015610aca5760001960f88860031b161c19848701351681555b505060018560011b018355505050505056fea264697066735822122064e46e5618ddb0ca29e4f3012500736553e774770e0cfab5e56ef485b3b3a0f764736f6c63430008110033",
  "devdoc": {
    "kind": "dev",
    "methods": {},
    "version": 1
  },
  "userdoc": {
    "kind": "user",
    "methods": {},
    "version": 1
  },
  "storageLayout": {
    "storage": [
      {
        "astId": 36,
        "contract": "contracts/DonationsStore.sol:DonationsStore",
        "label": "recipients",
        "offset": 0,
        "slot": "0",
        "type": "t_mapping(t_address,t_struct(RecipientInfo)21_storage)"
      }
    ],
    "types": {
      "t_address": {
        "encoding": "inplace",
        "label": "address",
        "numberOfBytes": "20"
      },
      "t_array(t_struct(Donation)10_storage)dyn_storage": {
        "base": "t_struct(Donation)10_storage",
        "encoding": "dynamic_array",
        "label": "struct DonationsStore.Donation[]",
        "numberOfBytes": "32"
      },
      "t_mapping(t_address,t_struct(RecipientInfo)21_storage)": {
        "encoding": "mapping",
        "key": "t_address",
        "label": "mapping(address => struct DonationsStore.RecipientInfo)",
        "numberOfBytes": "32",
        "value": "t_struct(RecipientInfo)21_storage"
      },
      "t_string_storage": {
        "encoding": "bytes",
        "label": "string",
        "numberOfBytes": "32"
      },
      "t_struct(Donation)10_storage": {
        "encoding": "inplace",
        "label": "struct DonationsStore.Donation",
        "members": [
          {
            "astId": 3,
            "contract": "contracts/DonationsStore.sol:DonationsStore",
            "label": "from",
            "offset": 0,
            "slot": "0",
            "type": "t_address"
          },
          {
            "astId": 5,
            "contract": "contracts/DonationsStore.sol:DonationsStore",
            "label": "amount",
            "offset": 0,
            "slot": "1",
            "type": "t_uint256"
          },
          {
            "astId": 7,
            "contract": "contracts/DonationsStore.sol:DonationsStore",
            "label": "timestamp",
            "offset": 0,
            "slot": "2",
            "type": "t_uint256"
          },
          {
            "astId": 9,
            "contract": "contracts/DonationsStore.sol:DonationsStore",
            "label": "message",
            "offset": 0,
            "slot": "3",
            "type": "t_string_storage"
          }
        ],
        "numberOfBytes": "128"
      },
      "t_struct(RecipientInfo)21_storage": {
        "encoding": "inplace",
        "label": "struct DonationsStore.RecipientInfo",
        "members": [
          {
            "astId": 12,
            "contract": "contracts/DonationsStore.sol:DonationsStore",
            "label": "nickname",
            "offset": 0,
            "slot": "0",
            "type": "t_string_storage"
          },
          {
            "astId": 14,
            "contract": "contracts/DonationsStore.sol:DonationsStore",
            "label": "avatarURI",
            "offset": 0,
            "slot": "1",
            "type": "t_string_storage"
          },
          {
            "astId": 16,
            "contract": "contracts/DonationsStore.sol:DonationsStore",
            "label": "unpaidAmount",
            "offset": 0,
            "slot": "2",
            "type": "t_uint256"
          },
          {
            "astId": 20,
            "contract": "contracts/DonationsStore.sol:DonationsStore",
            "label": "donations",
            "offset": 0,
            "slot": "3",
            "type": "t_array(t_struct(Donation)10_storage)dyn_storage"
          }
        ],
        "numberOfBytes": "128"
      },
      "t_uint256": {
        "encoding": "inplace",
        "label": "uint256",
        "numberOfBytes": "32"
      }
    }
  }
}